:100000000C948F010C94C7010C94C7010C94C70188
:100010000C94C7010C94C7010C94C7010C94C70140
:100020000C94C7010C94C7010C940E1D0C94E11D97
:100030000C94EA170C94C7010C94C7010C94C701E7
:100040000C94C7010C94C7010C94C7010C94C70110
:100050000C94C7010C9484180C94C7010C94C7012C
:100060000C94C7010C94C7010C94C7010C94C701F0
:100070000C94C7010C94C7010C94C7010C94C701E0
:100080000C94C7010C94C7010C94C7010C94C701D0
:100090000C94C7010C94C7010C94C7010C94C701C0
:1000A0000C94C7010C94C7010C94C7010101E30132
:1000B00004313030307C66697265666F78010435D2
:1000C00030307C0101280104313030307C77777783
:1000D0002E796F75747562652E636F6D2F776174FD
:1000E00063683F763D645177347739576758635179
:1000F00001043530307C0101280104313530307C79
:100100006B00000000000000000000002A2B280007
:1001100000000000000000000000000000000029B6
:10012000000000002C1E3420212224342627252EF6
:10013000362D3738271E1F2021222324252633332E
:10014000362E37381F0405060708090A0B0C0D0E5A
:100150000F101112131415161718191A1B1C1D2F26
:100160003130232D350405060708090A0B0C0D0E46
:100170000F101112131415161718191A1B1C1D2F06
:100180003130354C0000000000000000000000008D
:10019000000000000000000000000000000000005F
:1001A00000000000000000007E0F00D4FFFFFFC72A
:1001B0000000007810037200690063006B0070009B
:1001C0006100640000000E037300630068003300E8
:1001D0006600720000000403090409023B000201EA
:1001E00000A0FA0904000001030101000921110126
:1001F00000012240000705810308000109040100F5
:10020000010300000009211101000122B6000705C9
:1002100082032000011201000200000008EDFE0030
:100220000000010102000105010902A10185020986
:1002300001A1000509190129081500250195087576
:100240000181020501093009311581257F9502756B
:1002500008810609381581257F95017508810605F5
:100260000C0A38021581257F950175088106C0C0EA
:1002700005010980A101850319012AB7001501268E
:10028000B700950175108100C0050C0901A1018519
:100290000419012AA002150126A0029501751081FA
:1002A00000C005010906A1018506050719E029E737
:1002B000150025019508750181020507190029EF30
:1002C0001500250195F07501810205081901290520
:1002D000950575019102950175039101C00501090C
:1002E00006A101050719E029E71500250195087504
:1002F0000181029501750881010507190029FF1583
:100300000026FF00950675088100050819012905DA
:10031000950575019102950175039101C0001124A5
:100320001FBECFEFDAE0DEBFCDBF04B603FE18C0BC
:100330008091630290916402A0916502B09166027F
:100340008730904BA740B04B59F410926302109243
:1003500064021092650210926602E0E0F8E30995EB
:1003600011E0A0E0B1E0E2EBF0E402C005900D92F4
:10037000A637B107D9F722E0A6E7B1E001C01D9288
:10038000A336B207E1F70E942A120C9413200C94B2
:100390000000FB01892B39F48281882321F08CEA4B
:1003A00090E00E94670381E0089581E008950C9435
:1003B000C90108950C94D9011F93CF93DF9300D006
:1003C00000D00F92CDB7DEB749835A836B8330914B
:1003D000790189819A8131111DC06623B9F02223E8
:1003E000A9F00E94A809182F682F89819A810E947C
:1003F000570969817A81812F0F900F900F900F908C
:100400000F90DF91CF911F910C9433100E948209BD
:10041000182FEFCF0E94A80969817A81EDCFFC01E6
:10042000262F408151816281738184810C94DC018B
:1004300081E00895CF93DF93D82FC92F60E00E9409
:100440000F026D2F7C2FDF91CF910C94DA010C9469
:1004500076110C94791108950E943B070E942B029B
:100460002FEF84E39CE0215080409040E1F700C0F2
:1004700000000C94A8180F931F93CF93DF938C0167
:1004800061E00E940F02EC01B8010E94D7018823AD
:10049000A9F1B801CE010E943B16882379F1B80179
:1004A000CE010E94A914882349F1B801CE010E940F
:1004B000A515882319F1F8018281882361F0CB35D5
:1004C000FDE5DF0721F170F4C115ECE5DE07A1F0D1
:1004D000CF3DDC45C9F0C801DF91CF911F910F914D
:1004E0000C94D501CC358DE5D807A1F0CD35DD458F
:1004F00091F70E94DD0DEFCF0E942C0280E0DF918A
:10050000CF911F910F9108950E94970EF7CF0E94EF
:10051000E60DE1CF0E94E90DDECF0E94D4170C94C6
:100520007A030E947D030C94D817DF92EF92FF921A
:100530000F931F93CF93DF93E82FF0E0EC5FFE4F14
:10054000D490282F26952695269530E0F901EC5574
:10055000FE4F0491877010E0082E02C01595079594
:100560000A94E2F701701127F901EC56FE4FE4906E
:10057000F12C082E02C0F594E7940A94E2F791E07A
:10058000E922FF24F901EC57FE4FC491D0E002C0EC
:10059000D595C7958A95E2F7C170DD27011511053C
:1005A00019F081EE0E94D603E114F10419F086EEF1
:1005B0000E94D6038D2D0E946904EF2819F086EE63
:1005C0000E942304012B19F081EE0E942304CD2BFD
:1005D00051F08CE2DF91CF911F910F91FF90EF903E
:1005E000DF900C946904DF91CF911F910F91FF90E0
:1005F000EF90DF900895EF92FF920F931F93CF93A8
:10060000DF938C01F62E8AE0E82EF801849188238E
:1006100009F456C0813009F04FC0E8012196FE016F
:100620008491813099F42196FE0184910E9469049D
:100630008E010F5F1F4F8F2D882339F3EFE9FFE005
:100640003197F1F700C000008150F6CF823039F4C5
:10065000E8012296FE0184910E94D603E9CF8330FF
:1006600039F4E8012296FE0184910E942304E0CF30
:100670008430F1F6E8012296FE01249180E090E0BA
:10068000FE0131962053330B2A30310550F000978C
:1006900079F2EFE9FFE03197F1F700C00000019730
:1006A000F6CFE89EA001E99E500D1124C901840FE8
:1006B000951F2491EF01E4CF0E949502E801B8CF85
:1006C000DF91CF911F910F91FF90EF90089560E01F
:1006D0000C94FB0208950C946A0381E008950C9435
:1006E0006D030895CF93C82F0E946B038C2FCF9179
:1006F0000C946F0380E00C9472030E949A160C9481
:1007000072030E949A1690917801981721F08093B5
:1007100078010C9472030895EF92FF920F931F9348
:10072000CF93DF93CDB7DEB72B970FB6F894DEBF2C
:100730000FBECDBF042F4F83152F588769877A8747
:100740008B87EA84FB8461110E942B0D1E8285E059
:10075000FE013796DE01119601900D928A95E1F720
:10076000EF28A9F449815A816B817C818D819E811A
:100770000E944A0C2B960FB6F894DEBF0FBECDBF79
:10078000DF91CF911F910F91FF90EF90089510236B
:100790001F3F41F3CE0101960E9418028111E2CF62
:1007A000E9CFFC01808191810C94EA09CF93C82F95
:1007B000882309F446C08CEF8C0F813AA0F46C2F8B
:1007C00080910201909103010E941017882329F063
:1007D0008C2F0E94EB0C0E944B0D8C2F0E94E40C7E
:1007E000CF910C944B0D80E28C0F883048F4C77089
:1007F00081E001C0880FCA95EAF70E940C0DF0CF86
:100800008BE58C0F833038F42C2F2452330BC90125
:10081000CF910C94D016E8E5EC0FE73150F4F0E0FE
:10082000EE0FFF1FE75EFE4F80819181CF910C9408
:10083000E616CD3E30F08C2F0E94AE12CF910C9474
:100840007013CF910895882361F19CEF980F913A2E
:1008500020F40E94EB0C0C944B0D90E2980F983012
:1008600050F4877091E001C0990F8A95EAF7892FBB
:100870000E94120DF0CF9BE5980F933020F490E08A
:1008800080E00C94D01698E5980F973120F490E012
:1008900080E00C94E6168D3E20F00E94F7120C9436
:1008A000701308951F93CF93DF93182FEB010E94CD
:1008B000D603209731F4812FDF91CF911F910C94B3
:1008C00023048FE99FE00197F1F700C00000219712
:1008D000F0CF70E060E0893311F460E570E00C94D3
:1008E0005204882321F00E940C0D0C944B0D0895A6
:1008F000882321F00E94120D0C944B0D0895AF92A5
:10090000BF92CF92DF92EF92FF920F931F93CF93FC
:10091000DF9300D000D00F92CDB7DEB76C016D83AE
:100920007983FC011281F580F2948FE0F8220E9415
:10093000020DE82E8823B9F0E12E1123A1F0898160
:10094000807F803421F08D81805E8830C8F0809176
:100950004F0282FD15C082E00E94AC0D0E94020D84
:1009600091E0E82EE926898182958F70A82EB12C1E
:100970008C3008F06CC0F501EB5EFF4D0C94AA1FA3
:10098000E12CF1CF09810F70F981F07F11F0029510
:10099000007F1123A1F0002361F08D81805E8830FB
:1009A00018F01D81111107C0802F0E940C0D0E94AC
:1009B0004B0D8D8144C0802F0E941D0DF8CF8D817D
:1009C0000E942304002309F442C08D81805E883098
:1009D00018F01D81111104C0802F0E94120D03C058
:1009E000802F0E94230D0E944B0D31C009810F7092
:1009F0002981207F203211F00295007F3D81332331
:100A000081F0313009F471C0112309F47BC0FF205B
:100A100009F471C0F601858180FFCBCF8F7085838B
:100A20006AC080914F0282FF40C0112359F0002319
:100A300029F0802F0E940C0D0E944B0D80E00E9437
:100A4000D60305C080E00E9423040111C5CF88E0D1
:100A5000A81AB10894E0A916B10420F40E949A16CD
:100A60000E947203EE2009F49FC10E94FE0C80FDDB
:100A70009BC1F60112820E94F80C0E944708C60131
:100A80000E94FB060E94F80C0F900F900F900F90A1
:100A90000F90DF91CF911F910F91FF90EF90DF901A
:100AA000CF90BF90AF900C947808112389F0F1108B
:100AB00006C00E942E0D802B0E947104C8CF81E0D9
:100AC000F812F7CF0E942E0D802B0E94340DBFCF5D
:100AD000F11006C00E94410D802F0E947804B7CF0C
:100AE00091E0F91609F4B3CFF5CF112331F0E5E029
:100AF000EF1508F4ACCF802FDFCFF4E0FF1508F43A
:100B0000A6CFEACFFF2041F30D81093349F41FEF4F
:100B100027EE33E0115020403040E1F700C00000E4
:100B20008D810E94230493CF898186958695837059
:100B300069F0813009F08BCF8D819981937011110B
:100B400002C090E080E00E94E61681CF8D819981FD
:100B50009370111102C090E080E00E94D01677CF10
:100B60008D81112329F00E94AE120E9470136FCF65
:100B70000E94F712FACF8981837009F050C01111D9
:100B800066CF2D81229526952770220F220F4D8149
:100B90004F7050E070E060E0022E04C0440F551F1B
:100BA000661F771F0A94D2F70D8180E090E0DC0188
:100BB00004FF0FC08FE090E0A0E0B0E004C0880F19
:100BC000991FAA1FBB1F2A95D2F780959095A095D3
:100BD000B09519811695169513701D838C019D0192
:100BE000042B152B262B372B09831A832B833C834D
:100BF0001D8169817A818B819C81123051F0133083
:100C000059F0113019F00E94BD0721CF0E949507BD
:100C10001ECF0E94E5071BCF0E94930718CF112318
:100C200009F448C0098100FF12CF2D812295269535
:100C30002770220F220F4D814F7050E070E060E06E
:100C4000022E04C0440F551F661F771F0A94D2F767
:100C50000D8180E090E0DC0104FF0FC08FE090E0A8
:100C6000A0E0B0E004C0880F991FAA1FBB1F2A95FF
:100C7000D2F780959095A095B09519811695169507
:100C800013701D838C019D01042B152B262B372BF4
:100C900009831A832B833C831D8169817A818B812F
:100CA0009C81123071F0133079F0113039F00E94CC
:100CB0000609CDCE198111FFCACEB7CF0E94DE083A
:100CC000C6CE0E942E09C3CE0E941108C0CE098153
:100CD0000F700983112329F0802F0E9447088D810E
:100CE000EBCE8D810E94780489810E947808AFCE76
:100CF0000D81023F59F160F4003FC1F0013F89F0DE
:100D0000112309F44CC0F11054CE89818F7122C097
:100D10000D81033F11F1043F99F780914F0282FF4B
:100D200026C089818F71112301F314C0112349F06A
:100D300014E01F1508F48BCE89818F710E94AD08D5
:100D400086CE25E02F1508F482CEF6CF89818F71EB
:100D50001111CBCF0E9447087ACE112329F0898147
:100D60008F710E94220873CE0E941D0870CE11233D
:100D700059F009810F710983802F0E94470863E0B1
:100D800089810E94910D63CE81E00E94AC0D11E03B
:100D90001F1508F05CCE82E00E94AC0D58CEF11019
:100DA000B3CE89818F71A1CF0F900F900F900F90CC
:100DB0000F90DF91CF911F910F91FF90EF90DF90F7
:100DC000CF90BF90AF9008950F931F93CF93DF9371
:100DD000EC01688179818A810E94F6098C010E9468
:100DE00056090E949207B801CE01DF91CF911F9161
:100DF0000F910C947F04CF93DF93EC01988189814C
:100E00002B813C81232B19F089238F3F59F4DF91EB
:100E1000CF910895CE010E94E406CE01DF91CF91DB
:100E20000C941A02CE010E943B028111F3CF0E9462
:100E3000020D882361F38A81882349F380914F0250
:100E400082FDE5CF82E0DF91CF910C94AC0D90E074
:100E500080E00E94D01690E080E00E94E6160E949A
:100E60002B0D0E944B0D0E949B140C9470130E943A
:100E7000F20C0C9427070E941A0D0C943707282FA8
:100E800092959F70963091F060F4925F9F709230CF
:100E900030F481E0203F81F030F4283E30F080E0F3
:100EA00008959A5FF3CF243FD1F7089581E0283E5B
:100EB000E0F3213FA1F7F9CF0895FC0180819181F2
:100EC0000E94EA090C943F07CF93DF9300D000D033
:100ED0000F92CDB7DEB70F900F900F900F900F903D
:100EE000DF91CF910895CF93DF9300D000D000D051
:100EF000CDB7DEB726960FB6F894DEBF0FBECDBFD6
:100F0000DF91CF91089508950C9483070E94840780
:100F1000609383017093840180938501909386018F
:100F20000C94270708950C948607CF93DF9300D085
:100F300000D0CDB7DEB769837A838B839C838091A1
:100F4000830190918401A0918501B091860129814E
:100F50003A814B815C81282B392B4A2B5B2B2983CF
:100F60003A834B835C83CA01B9010F900F900F90B5
:100F70000F90DF91CF910C948607CF93DF9300D031
:100F800000D0CDB7DEB769837A838B839C83809151
:100F9000830190918401A0918501B09186012981FE
:100FA0003A814B815C81282339234A235B2329839F
:100FB0003A834B835C83CA01B9010F900F900F9065
:100FC0000F90DF91CF910C948607CF93DF9300D0E1
:100FD00000D0CDB7DEB769837A838B839C83809101
:100FE000830190918401A0918501B09186012981AE
:100FF0003A814B815C81282739274A275B2729833F
:101000003A834B835C83CA01B9010F900F900F9014
:101010000F90DF91CF910C9486070C9483070C946A
:101020000D080E940F0860937F01709380018093E8
:101030008101909382010C94270760E070E0CB015E
:101040000C9411080F931F93CF93DF9300D000D01F
:10105000CDB7DEB741E050E060E070E08A019B016F
:1010600004C0000F111F221F331F8A95D2F7098376
:101070001A832B833C83C901B8010F900F900F9006
:101080000F90DF91CF911F910F910C9411080F9346
:101090001F93CF93DF9300D000D0CDB7DEB741E0F0
:1010A00050E060E070E004C0440F551F661F771FDA
:1010B0008A95D2F780917F0190918001A091810162
:1010C000B09182018A019B01082B192B2A2B3B2B03
:1010D00009831A832B833C83C901B8010F900F90B9
:1010E0000F900F90DF91CF911F910F910C941108E9
:1010F0000F931F93CF93DF9300D000D0CDB7DEB70F
:1011000041E050E060E070E004C0440F551F661FEE
:10111000771F8A95D2F7409550956095709580918C
:101120007F0190918001A0918101B09182018A019B
:101130009B01082319232A233B2309831A832B832A
:101140003C83C901B8010F900F900F900F90DF9171
:10115000CF911F910F910C9411080F931F93CF9370
:10116000DF9300D000D0CDB7DEB741E050E060E0C3
:1011700070E004C0440F551F661F771F8A95D2F791
:1011800080917F0190918001A0918101B0918201B5
:101190008A019B01082719272A273B2709831A83DD
:1011A0002B833C83C901B8010F900F900F900F90D3
:1011B000DF91CF911F910F910C941108CF93DF9382
:1011C00000D000D0CDB7DEB769837A838B839C8350
:1011D00080917F0190918001A0918101B091820165
:1011E00029813A814B815C81282B392B4A2B5B2B3F
:1011F00029833A834B835C83CA01B9010F900F9016
:101200000F900F90DF91CF910C941108CF93DF9343
:1012100000D000D0CDB7DEB769837A838B839C83FF
:1012200080917F0190918001A0918101B091820114
:1012300029813A814B815C81282339234A235B230E
:1012400029833A834B835C83CA01B9010F900F90C5
:101250000F900F90DF91CF910C941108CF93DF93F3
:1012600000D000D0CDB7DEB769837A838B839C83AF
:1012700080917F0190918001A0918101B0918201C4
:1012800029813A814B815C81282739274A275B27AE
:1012900029833A834B835C83CA01B9010F900F9075
:1012A0000F900F90DF91CF910C9411080895E82FC3
:1012B000E90F8E2F877041E001C0440F8A95EAF74D
:1012C000E695E695E69585E0E89FF0011124E6585D
:1012D000FE4F30E020E070E05191DF011197CB012B
:1012E000022E02C0969587950A94E2F78170819547
:1012F0008527842385278C932F5F3F4F2530310529
:1013000059F70895E82FE90F9E2F9770E695E69517
:10131000E69585E0E89FF0011124E658FE4F50E085
:1013200040E080E0219130E0092E02C036952795FB
:101330000A94E2F721703327042E01C0220F0A9489
:10134000EAF7822B4F5F5F4F4530510559F70895FB
:10135000BF92CF92DF92EF92FF920F931F93CF93A2
:10136000DF938C01C0907F01D0908001E0908101DB
:10137000F09082018091830190918401A091850178
:10138000B0918601C82AD92AEA2AFB2ACFE1D0E007
:10139000BC2ED701C6010C2E04C0B695A795979513
:1013A00087950A94D2F780FD0EC0219788F7B12C5B
:1013B0008B2DDF91CF911F910F91FF90EF90DF90D8
:1013C000CF90BF900895B8018C2F0E9441100197D3
:1013D00061F3EECFCF93DF93D82FC92F0E94A809D6
:1013E0006D2F7C2FDF91CF910C9441101F93CF93E1
:1013F000DF93162FD72F90917901992339F0862FFB
:10140000972FDF91CF911F910C94EA09882391F0D7
:10141000862F972F0E94A809C82F682F812F9D2FF4
:101420000E945709612F7D2F8C2FDF91CF911F9143
:101430000C944110862F972F0E948209C82FF2CF5B
:101440001F93CF93DF93E091870116E0809188018D
:101450008E1304C0DF91CF911F910895CE2FD0E05D
:101460001E9FF0011124E757FE4F40815181628198
:101470007381848195810E9473072196EC2FE77018
:10148000E5CF4091B9015091BA016091BB017091D3
:10149000BC018091BD019091BE010C947307FF9235
:1014A0000F931F93CF93DF938091BE01807FD1F480
:1014B0008091BB018823B1F0809187011091880150
:1014C0007091B9016091BA01A091BC01B091BD01C8
:1014D000062F0723C0910001D091010196E0F92E5B
:1014E000181306C0DF91CF911F910F91FF900895BF
:1014F00090E0109711F00F3F19F401968770F0CF2C
:10150000F89E9001F99E300D1124F901E757FE4F26
:1015100041816413F2CF40814713EFCF42814111E3
:10152000ECCF438154814A1B5B0B4C175D0728F7B6
:101530008091BE018F7080618093BE01F901E257F6
:10154000FE4F80818F708061808389EB91E00E94E3
:10155000FB06DF91CF911F910F91FF900C94200A11
:10156000AF92BF92CF92DF92EF92FF920F931F93B1
:10157000CF93DF93CDB7DEB72B970FB6F894DEBFCE
:101580000FBECDBF8C0185E0F801DE0117960190FA
:101590000D928A95E1F7D8011296EC901297139666
:1015A000CD90DC9089EBA82E81E0B82E2091B90176
:1015B0009091BA014091BC015091BD014115510576
:1015C00029F0892F82238F3F09F04DC1EE2009F4C5
:1015D0005DC1C8010E945D07F82E882309F456C139
:1015E00086E0F801A9EBB1E001900D928A95E1F750
:1015F00089EB91E00E94D1030E944F0A03C18091C0
:10160000BE01E82FE07F4617570708F0ABC0D801AE
:1016100011963C911197E111E1C0FE2C391325C0C0
:101620009C91921322C0E11020C08F708061809342
:10163000BE010E94410A89EB91E00E94FB06809165
:10164000BE01F80185838F2D2B960FB6F894DEBF6F
:101650000FBECDBFDF91CF911F910F91FF90EF9003
:10166000DF90CF90BF90AF9008952F81CD2829F0C3
:10167000832F82238F3F09F0AEC080E0F82FF170F6
:10168000DF2EE09187014091880156E080FD1CC06B
:10169000EE20C9F28091BE0181608093BE01F12CE1
:1016A000D2CF8E2F90E05E9FF0011124E757FE4FBE
:1016B0006181361306C06081621303C06281E61245
:1016C000E7CF0196E82FE770E413EBCF8F81988581
:1016D0000E94EA09292F22952F70903268F0225F2C
:1016E0002F70223080F49F7059F0D80115969C918C
:1016F000907F31F4D12C0AC09F7011F08823D1F370
:10170000805E8830B8F3C8010E94FB06FD2C9BCF99
:10171000C8010E945D07882309F4B8C0EE2009F4CF
:10172000B5C08091BE01803270F02091B901309136
:10173000BA013A8329831B82DD82CC828E83CE015B
:1017400001960E94FB0686E0F801A9EBB1E001904A
:101750000D928A95E1F70E944F0A0E94410AFF24E8
:10176000F39471CFE11151C04F81588569857A8515
:101770008B850E94640789EB91E00E94FB0686E05E
:10178000D5011D928A95E9F70E94410A88CF86E02B
:10179000F801A9EBB1E001900D928A95E1F753CFE2
:1017A000C8010E945D078111CECF8091BE0181608A
:1017B0008093BE01C8010E94FB0645CF4F8158852A
:1017C00069857A858B850E94640786E0D5011D9224
:1017D0008A95E9F717C081E08E2550CF391398CF4D
:1017E000F8019081921394CFE11092CF8583C801C4
:1017F0000E94FB0686E0F801A9EBB1E001900D9292
:101800008A95E1F70E94410A1ECFF80131819313B6
:101810007FCFF801908192137BCFE11079CF858340
:10182000C8010E94FB0686E0D5011D928A95E9F762
:101830000ACFD80111968C919813B2CFF80180810C
:101840008213AECF8091BE0180FDA1CF982F907FF3
:1018500009F49DCF8583903F51F2982F907F905F40
:101860008F70892BC3CFF090BB01F601E41BF50B01
:10187000AF016091000170910101F110C0CE4617D7
:10188000570708F09BCFFE2CE110D3CFC8010E9470
:10189000FB0665CF1F93CF93DF93CDB7DEB72C97B1
:1018A0000FB6F894DEBF0FBECDBF4F835887698750
:1018B0007A878B879C87CE0107960E94B00A88237F
:1018C00069F08A859B85892B39F058854F81852F52
:1018D00084238F3F09F071C016E05FC086E0FE01EF
:1018E0003796DE01119601900D928A95E1F78F816E
:1018F000988520918801409187016A857B85672BB7
:1019000059F389238F3F41F330E0C9010196877075
:1019100099274817190671F40E943B071092880115
:101920001092870186E0E9EBF1E0DF011D928A95D4
:10193000E9F7D2CF96E0929FD001939FB00D11248A
:10194000A757BE4FFE01319601900D929A95E1F78F
:10195000809388010E94200ABFCF819FC00111247B
:1019600087579E4F0E94B00A8823E9F0E0918701D3
:101970001E9FF0011124E757FE4F40815181628183
:101980007381848195810E9473078091870190E023
:1019900001968770992780938701809187019091A4
:1019A00088018913DACF2C960FB6F894DEBF0FBEEC
:1019B000CDBFDF91CF911F91089569857A858B8581
:1019C0009C850E94730788CF682F809102019091B7
:1019D00003010C949417682F8091020190910301E8
:1019E0000C949F1780910201909103010C94AA1707
:1019F0008091DF0185958595859508958091DF011A
:101A0000877008959091DF01977081E009F480E07C
:101A1000089580910202089590910202982B90936C
:101A200002020895982F9095809102028923809355
:101A30000202089510920202089590910102982BDB
:101A4000909301020895982F909580910102892327
:101A50008093010208951092010208958091E0019F
:101A6000089508950C94310D90914F0292FD08C095
:101A70009091E001981721F08093E0010C94320DD1
:101A800008958091E001882329F01092E00180E020
:101A90000C94320D0895CF93DF93E0910201F09101
:101AA0000301809102028083E0910201F091030121
:101AB000808190910102892B80839091E00199238C
:101AC00081F0E0910201F09103018081892B8083F4
:101AD00080910201909103010E94FC1681110E94E5
:101AE000410DC0910201D091030140E250E06FEB43
:101AF00071E0CE010E94C41F892B69F080E2FE01D3
:101B0000AFEBB1E001900D928A95E1F7CE01DF9144
:101B1000CF910C94A616DF91CF91089508950C945F
:101B20008E0D90914F0292FD10C098E0899F900118
:101B30001124622B6093DF010E9447088091DF012E
:101B40008595859585950C948F0D0C94470810927A
:101B5000DF0180E00C948F0D9091DF018095892347
:101B60008093DF01282F277091F4282F082E000C76
:101B7000330B9217130659F090914F0292FD07C054
:101B80008595859585950E9478080C94A70D0895F4
:101B900090914F0292FB222720F9281769F080FBD1
:101BA00092F990934F0280914E0290914F020E94C1
:101BB000130E82E00C94AC0D089580914F0282FBCD
:101BC000882780F991E089270C94C80D81E00C9456
:101BD000C80D80E00C94C80D6FEF7FEF90E080E0BF
:101BE0000C94FD1F90E080E00E94D91F9C0181E0D1
:101BF000293E3E4F09F080E0089582E090E00C9489
:101C0000D11F83E090E00C94D11FCF9384E090E04B
:101C10000E94D11FC82F82E290E00E94D11F982F0E
:101C20008C2FCF910895CF93682FC92F84E090E037
:101C30000E94DF1F6C2F82E290E0CF910C94DF1F97
:101C4000AB01BC018FE090E00C94F11FAB01BC0133
:101C500083E190E00C94F11F60E070E0CB010C9404
:101C6000260E60E070E0CB010E94200E0C942C0E3A
:101C700069EE7EEF90E080E00E94FD1F60E082E070
:101C800090E00E94DF1F60E083E090E00E94DF1F91
:101C900010928301109284011092850110928601A6
:101CA00060E084E090E00E94DF1F60E082E290E06C
:101CB0000E94DF1F60E085E090E00E94DF1F60E08F
:101CC00086E090E00E94DF1F6FEF87E090E00E94C7
:101CD000DF1F40E050E0BA0188E090E00E94F11F71
:101CE00060E08DE090E00E94DF1F40E050E0BA012C
:101CF00088E190E00E94F11F60E087E190E00E949F
:101D0000DF1F40E050E0BA018CE190E00E94F11F3B
:101D100070E060E080E290E00E94FD1F40E050E053
:101D2000BA0188E190E00E94F11F0C94310E0C94EE
:101D3000380E682F8EE090E00C94DF1F0E9455183B
:101D4000609308027093090280930A0290930B0239
:101D50006093040270930502809306029093070239
:101D6000089585B7806885BF85B7806885BF089569
:101D7000089508950C94B90E08950C94BC0E0E9419
:101D8000B10E80E291E10E9490160E94B80E0C9470
:101D9000BA0E81E008950C94C90E089508950E942A
:101DA000CD0E0C94CE0E0E943D110C9471030E9436
:101DB00040180E94B6110E94D30E0C94BD0EFF92E3
:101DC0000F931F93CF93DF9300D000D00F92CDB726
:101DD000DEB70E94C111082F81110E949E0E80E083
:101DE0000E947B11182F80910302F82EF126811793
:101DF00039F080910C0281FD0E948111F0FC1FC01E
:101E00008FEF89838A831B820E9449188160782F13
:101E10009D838C8349815A816B81892F0E948C0319
:101E200081E0011101C080E00F900F900F900F90A2
:101E30000F90DF91CF911F910F91FF9008950E9415
:101E4000CB0E882381F019821A8211701B830E94A5
:101E500049188160782F9D838C8349815A816B81D9
:101E6000892F0E948C038091030291E0892780933F
:101E70000302D6CF0E94DF0E0E948A130C948103C6
:101E8000CF93DF930E944510EC01811522E5920764
:101E900008F05AC0811531E5930708F0B7C0883EB5
:101EA0009105E8F4803E910570F4883A910578F444
:101EB000853A910508F099C08130910521F0049789
:101EC000813A910548F4CE01DF91CF910895885A67
:101ED0009109479708F48CC0D0E0C0E0F4CFC11559
:101EE00080E5D807A0F4C11590E4D90708F08BC0AD
:101EF000CF3FD10509F028F4CD3ED10568F3D06578
:101F0000E2CFCE019A9581159F41E8F2E5CF9E017F
:101F1000F4E036952795FA95E1F723708C2F869596
:101F20008695837030E2839FC0011124922BC37089
:101F300021E030E002C0220F331FCA95E2F7822B66
:101F4000932BEC01DC68BFCFC11586E5D80730F5CF
:101F5000C11595E5D90708F06DC0C11524E5D20774
:101F6000C0F48C2F869586959E0123703327C1156A
:101F7000D34508F050C0C1E0D0E002C0CC0FDD1F57
:101F80002A95E2F720E2829FC0011124C82BD92BA9
:101F9000D9CFDC2FCC27C46FD06A95CFC1153AE5D5
:101FA000D30788F4C11589E5D80708F04EC0CE01E3
:101FB00098558F3F910511F008F08ECFDC2FCC277C
:101FC000C06FD06A80CFCE0190568115904208F044
:101FD00083CF8D2F8F710E94DD1090E0982F88277E
:101FE00088279F718C2BEC012EC0A497D0646BCFF7
:101FF000C85AD0E0CC0FDD1FC95BDE4F0990D881F5
:10200000C02DD46460CFDF70D06A5DCFD82FCC27CD
:10201000C16FD06A58CFC1E0D0E002C0CC0FDD1F45
:102020002A95E2F730E2839FC0011124C82BD92BF7
:10203000DA6849CF8C2F0E94DD10C82FD0E0DC2F4A
:10204000CC27CC27DF71D0623ECF8C2F8F700E94BF
:10205000DD1034E0D695C7953A95E1F7CF709C2F07
:10206000EC01D06930CF272F260F3327331FF9011A
:10207000E80FF11DEE0FFF1FEE5FFE4F859194916B
:1020800008950E9433100C94400F803E910599F101
:10209000C8F48133910509F476C048F4893291057A
:1020A00009F46AC08A32910509F474C0089589332D
:1020B0009105D1F082389105B9F08533910509F485
:1020C00054C00895843E910599F138F4823E9105FB
:1020D000F9F0833E910509F10895863E910599F145
:1020E000873E9105B9F1089520914E022370A1F029
:1020F00080EE90E0089520914E0220FD52C0309174
:102100004F0230FF09C024FF4FC090E080E004C0C0
:1021100020914E0222FDF7CF089520914E0222FD1C
:1021200046C030914F0230FDE3CF24FFF5CFEDCF15
:1021300020914F0221FFF0CF80914E0284FDE5CF28
:1021400087EE90E0089520914E0223FFE5CF24FD15
:10215000DCCFF6CF20914E0223FD2CC030914F02F0
:1021600031FFE3CF84EE90E0089520914E0225FFE9
:10217000D3CF89E290E0089520914E0225FFCCCF85
:1021800085E390E0089520914E0226FFC5CF8AE2B4
:1021900090E0089520914E0226FFBECF81E390E0AB
:1021A000089589E390E0089583EE90E0089582EE2B
:1021B00090E0089586EE90E0089590914E0292FF8F
:1021C00006C0282F28712830F9F4877F846093FF98
:1021D00006C0282F28712831F1F4877E8461209170
:1021E0004F0220FF06C0382F38713830D9F4877F6E
:1021F000816021FF06C0282F28712831D1F4877E05
:10220000816194FD877E0895282F24712430F9F68A
:102210008B7F8860DCCF282F2471243101F78B7EDF
:102220008861DDCF382F3171313019F78E7F8860AA
:10223000E0CF282F2171213121F78E7E8861E1CFF7
:1022400080E008950C94EC0D0E94C1112FEF86E7F9
:1022500091E0215080409040E1F700C000000E94D2
:10226000C11180E00E947B1180FF04C00E942211F6
:102270000C94A81808950C942411CF93DF9300D0E8
:1022800000D0CDB7DEB70E94F20D811102C00E94CE
:10229000970E0E94FD0D80930C020E94050E9093F4
:1022A0004F0280934E020E943B110E94010E282F84
:1022B00030E050E040E0CA01B9010E9493078091EC
:1022C0007F0190918001A0918101B0918201898369
:1022D0009A83AB83BC83BC01CD010F900F900F900C
:1022E0000F90DF91CF910C940F0808950C94751105
:1022F00008950C947811E82FF0E0EF5AFD4F80819B
:102300000895089580EA8A95F1F7089500C0089528
:102310000C948211F8945198599A789408950E94D7
:102320008A11F89425982D9A789408950F931F9305
:10233000CF93DF93EC01062FF894519A5998789433
:102340000E94861183B185FB882780F911E0182748
:102350000E948A11612F802F0E948811C00FD11D09
:102360001883DF91CF911F910F9108950E948F11D3
:10237000109251021092500281E00E94E7110C94D9
:1023800027021F93CF93DF930F92CDB7DEB7198249
:1023900060E0CE0101960E949611909150028981D1
:1023A00011E0981301C010E0981380935002212F80
:1023B00041E061E572E080E592E00E94E8110E9450
:1023C0002902812F0F90DF91CF911F9108950895D9
:1023D000FF920F931F93CF93DF93F82E092F162FA1
:1023E000D72FC42F222349F081E080930F020E944F
:1023F000491890930E0280930D0280910F0288235A
:10240000A1F080910D0290910E020E94751805971F
:1024100060F0EF2DF02FA12FBD2FCF018C0F911D5C
:10242000E817F90741F410920F02DF91CF911F9145
:102430000F91FF90089521912D93F2CF0E946E1A73
:102440000E94D70E0C947A1A0E947E1A0E943A0FAC
:102450000C94981A0E94E9170E94551A0E94BF0E08
:102460000E941E120E9424120E94CF0EFBCF809168
:10247000160280FF0DC06091090170E0660F771FA2
:102480006038710570F56115710569F1862F089541
:1024900081FF07C06091090184E0689FB0011124A9
:1024A000EFCF6091090182FD0AC080911502882357
:1024B000A9F02091080160910901821710F088E0CD
:1024C000ECCF869FC001112433E0880F991F3A9505
:1024D000E1F7622F70E00E94961FD2CF68E070E0B3
:1024E000D5CF8FE7089581E008958091160280FF8F
:1024F0000CC06091050170E07595679575956795BD
:102500006115710549F1862F089581FF06C060911C
:10251000050170E075956795F3CF6091050182FD27
:102520000BC0909114029923A1F060910401809155
:102530000501961738F0682F70E06038710500F3D8
:102540008FE70895899FC001112470E00E94961FB3
:10255000F4CF61E070E0D7CF81E00895E3E1E80FC8
:10256000E331E0F5F0E0EF5DFF4D0C94AA1F0E940F
:102570003712819580931A0208950E943712FACF7C
:102580000E94371281958093190208950E94371294
:10259000FACF0E94751280931B0208950E94751253
:1025A0008195F9CF0E947512819580931C02089540
:1025B0000E947512FACF815F990B21E030E001C0D3
:1025C000220F8A95EAF780911802822B80931802D5
:1025D000089580911602816080931602089580917B
:1025E00016028260F9CF809116028460F5CF409187
:1025F00019028D3E59F480911A0287FF0DC0109286
:102600001A0241110BC01092150208C08E3E81F4CF
:1026100080911A0218169CF3442381F080911B02CA
:1026200090911C02892B09F05AC01092140208954F
:102630008F3E49F447FFF0CF1092190280911A02A1
:102640008111ECCFE0CF803F19F41416ACF3E4CF46
:1026500090911B02893F29F41916F4F610921B027F
:10266000DBCF8A3F19F497FFD7CFF8CF90911C02A8
:102670008B3F29F497FFD0CF10921C02CDCF8C3F17
:1026800019F41916CCF3C8CF9FE0980F983090F446
:10269000815F990B21E030E0B90102C0660F771F1E
:1026A0008A95E2F7CB018095909118028923809357
:1026B0001802B2CF8D3F31F4809116028E7F809345
:1026C0001602AACF8E3F21F4809116028D7FF7CF9C
:1026D0008F3F09F0A1CF809116028B7FF0CF089534
:1026E0000E9449182091190230911A02232B21F0DF
:1026F000809312029093130220911B0230911C02CE
:10270000232B21F0809310029093110287E192E035
:102710000C94C116CF92DF92EF92FF920F931F930A
:10272000CF93DF9300D000D000D0CDB7DEB726E046
:10273000E7E1F2E0CE010196DC0101900D922A95CD
:10274000E1F7C0901902D0901A02E0901B02F090BD
:102750001C021092190210921A0210921B0210927F
:102760001C022C2D2D298C0191F080911202909148
:1027700013020E9475189C0180911502882309F4A8
:1027800040C090910A019217130608F448C08E2D9C
:102790008F2991F080911002909111020E9475187A
:1027A0009C0180911402882309F478C0909106015D
:1027B0009217130608F480C08091190290911A02B2
:1027C000892B90911B02892B90911C02892B11F06F
:1027D0000E94701386E0F801A7E1B2E001900D922B
:1027E0008A95E1F726960FB6F894DEBF0FBECDBFEF
:1027F000DF91CF911F910F91FF90EF90DF90CF90DD
:10280000089540910B019AE0499FA00111244217BD
:10281000530708F0BCCF8F5F8093150202C08F3F33
:10282000D1F7CC2059F00E9437129FEF1C140CF402
:1028300091E0899F802D112480931902DD2059F0A9
:102840000E9437129FEF1D140CF491E0899F802D98
:10285000112480931A0230911902332309F497CF7F
:1028600020911A02222309F492CF45EB3403C001D0
:102870001124992359F09093190245EB24039001F8
:102880001124332339F030931A0281CF81E08093F1
:102890001902F3CF81E080931A0279CF40910701AA
:1028A0009AE0499FA00111244217530708F084CFF2
:1028B0008F5F8093140202C08F3FD1F7EE2059F052
:1028C0000E9475129FEF1E140CF491E0899F802DD9
:1028D000112480931B02FF2059F00E9475129FEF74
:1028E0001F140CF491E0899F802D112480931C0209
:1028F00030911B0220911C02332309F45DCF222367
:1029000009F45ACF45EB3403C0011124992359F03F
:1029100090931B0245EB240390011124332339F0DB
:1029200030931C0249CF81E080931B02F3CF81E0FA
:1029300080931C0241CF86E0E7E1F2E0DF011D92C7
:102940008A95E9F71092150210921402109216025D
:102950000895CF93DF93EC01FB018281882309F472
:10296000F2C0C236FDE5DF0749F048F5C631ECE5B7
:10297000DE07E0F4C230FCE5DF07F0F00E94050E50
:1029800090934F0280934E02C631ECE5DE0748F586
:10299000C230FCE5DF07C0F480914E0290914F02F7
:1029A0000E94130E0E943B0780E006C09E012B5F31
:1029B0003C452930310510F3DF91CF910895C63A97
:1029C0009DE5D907C9F7DACFFE01E350FC458091B8
:1029D0004E028160E331F10528F5EC5CFF4D0C946B
:1029E000AA1FC4308DE5D80770F4CB3F9CE5D9070A
:1029F00098F2FE01EC5FFC45E830F10510F5E95B6B
:102A0000FF4D0C94AA1FC236EDE5DE0709F494C011
:102A100090914E02892F8E7F90FF8160C63ADD45EE
:102A200009F0BACF80934E02B7CF80914E028260F8
:102A3000F9CF80914E028460F5CF80914E0288607C
:102A4000F1CF80914F02816080934F02A5CF80919A
:102A50004F028260F9CF80914E028061E3CF809176
:102A60004E028062DFCF80914E028064DBCF0E94F5
:102A70003B0780914E028068D5CF80914E028C60DA
:102A8000D1CF80914F028360DFCF80914E028E7F45
:102A9000C9CF80914E028D7FC5CF80914E028B7F32
:102AA000C1CF80914E02877FBDCF80914F028E7F34
:102AB000CBCF80914F028D7FC7CF80914E028F7E0A
:102AC000B1CF80914E028F7DADCF80914E028F7B32
:102AD000A9CF0E943B0780914E028F77A3CF8091B0
:102AE0004E02837F9FCF80914F028C7FADCF80912C
:102AF0004E0282FB992790F921E0922790FB82F900
:102B000090FB83F98FCF80914F02982F9095917011
:102B10008E7F892B90FB81F997CF0E943B07909184
:102B20004E02892F97FB87F980587CCF81E00E9465
:102B3000990E32CF80E0FBCF90914E02892F8F7E8D
:102B400094FF80616FCF81E037CFCF93DF93EB01AC
:102B500086319C4511F50E94090D9A81992399F0BF
:102B60008A7A91E009F490E090931D02811109C0E6
:102B700089E20E94E40C0E944B0D80E0DF91CF912E
:102B8000089585E3F6CF80911D02811104C089E28A
:102B90000E94EB0CF0CF85E3FBCF81E0EFCF0F93EA
:102BA0001F93CF93DF93C42FD22FFC018281882300
:102BB000C9F0409320020E94491890931F0280930D
:102BC0001E0280E28C0F883008F050C0C77081E090
:102BD00001C0880FCA95EAF7DF91CF911F910F913D
:102BE0000C94710410912002141335C080911E02C0
:102BF00090911F020E947518883C910560F5C0E213
:102C0000CD0F1D17B9F080E2810F883040F41770A6
:102C100081E001C0880F1A95EAF70E947804C83055
:102C200048F481E09D2F977001C0880F9A95EAF7CC
:102C30000E947104802F0E946904C830B8F4D770D4
:102C400081E001C0880FDA95EAF7DF91CF911F91FB
:102C50000F910C94780480E28C0F883038F4C770A0
:102C600081E001C0880FCA95EAF7EFCFDF91CF91DD
:102C70001F910F9108950F939C01CB01243F4CE5C8
:102C80003407A1F190F4293DFCE53F0749F12A3DC5
:102C90004CE53407E9F1283D3C45C1F0FC01828157
:102CA0008823E1F11092200219C0263FFCE53F077E
:102CB00019F1273F4CE5340729F1253F3C4571F7D1
:102CC00007E225EE44EE65EF7CE505C006E221EE65
:102CD00041EE68ED7CE50E94CF1580E00F910895EC
:102CE00007E225EE45EE69ED7CE5F5CF06E221EE43
:102CF00040EE64EF7CE5EFCF06E221EE42EE66EFB8
:102D00007CE5E9CF07E225EE46EE67EF7CE5E3CF11
:102D100008E221E045EE6AED7CE5DDCF81E0DECF23
:102D20009093770180937601089590932602809383
:102D300025020895E0912502F0912602309721F0B6
:102D40000190F081E02D099480E00895DC01E0918C
:102D50002502F0912602309799F08091180188237E
:102D600051F080914E0287FF06C08C9111968C9392
:102D7000119786E08C930280F381E02DCD010994B8
:102D80000895DC01E0912502F0912602309739F098
:102D900082E08C930480F581E02DCD0109940895A3
:102DA00020912302309124022817390771F0909363
:102DB000240280932302E0912502F09126023097AD
:102DC00021F00680F781E02D0994089520912102D9
:102DD000309122022817390771F0909322028093D4
:102DE0002102E0912502F0912602309721F0008423
:102DF000F185E02D09940895FC0132968091180127
:102E0000882321F080914E029EE187FF96E080E0CA
:102E1000915008F4089521912223D1F38F5FF8CFC8
:102E20009C01662301F1809118018823F1F08091C3
:102E30004E0287FF1AC0462F469546954695603F3D
:102E400090F4677081E090E002C0880F991F6A9546
:102E5000E2F7240F311DF901228130E028233923C4
:102E600081E0232B71F480E00895F9013296285F08
:102E70003F4F8191861721F0E217F307D1F7F3CF87
:102E800081E008959C01FC0132968FEF90E0419122
:102E9000461751F08F3F19F4411101C0892F9F5FF0
:102EA0009630A9F78F3F09F40895280F311D87FD4B
:102EB0003A95F901628308959C01FC013296285FDE
:102EC0003F4F8191861303C0DF0111971C92E217D7
:102ED000F307B9F70895FC01862F869586958695A8
:102EE000603F60F4E80FF11D677021E030E001C041
:102EF000220F6A95EAF78281822B82830895FC0172
:102F0000862F869586958695603F68F4E80FF11DBB
:102F1000677081E090E001C0880F6A95EAF78095BC
:102F2000928189238283089520911801222329F018
:102F300020914E0227FD0C946B170C9442172091A0
:102F40001801222329F020914E0227FD0C947F17AF
:102F50000C945C17FC01329680911801882351F083
:102F600080914E0287FF06C08EE1DF011D928A9597
:102F7000E9F7089586E0F9CF08950C94BC178F5FA8
:102F8000809327020C94BD1783E0809327020C9452
:102F9000BD170C94BF1781E0809327020C94BD17D6
:102FA0000C94CB17089508950C94D31708950895A1
:102FB0000C94D2170E94D6170E94C1110E94D717F5
:102FC00080E00E947B11982F81E0911101C080E088
:102FD000089508951F921FB61F9211248F939F93F7
:102FE000AF93BF9380912802811113C08091520248
:102FF00090915302A0915402B09155024196A11DA7
:10300000B11D8093520290935302A0935402B09347
:103010005502BF91AF919F918F911F901FBE1F903E
:10302000189580915A02843031F10E948D021092DD
:10303000280288E190E020E40FB6F894A8958093E8
:1030400060000FBE2093600083B7817F846083BFE0
:1030500083B7816083BF7894889583B78E7F83BF61
:103060000FB6F894A8958091600088618093600005
:10307000109260000FBE08950E943B070C949102CD
:1030800082E084BD93E095BD9AEF97BD80936E007A
:1030900008952FB7F8948091520290915302A09115
:1030A0005402B09155022FBF0895CF93DF9300D003
:1030B00000D0CDB7DEB78FB7F8942091520230918F
:1030C0005302409154025091550229833A834B8315
:1030D0005C838FBF69817A818B819C810F900F9077
:1030E0000F900F90DF91CF9108959C014FB7F89406
:1030F0008091520290915302A0915402B0915502D6
:103100004FBF821B930B089578941F921FB61F9296
:1031100011248F939F93AF93BF938091520290910C
:103120005302A0915402B09155020196A11DB11D08
:103130008093520290935302A0935402B09355028D
:10314000BF91AF919F918F911F901FBE1F901895B7
:1031500081E08093E00080E28093D8001092C90063
:103160008FE19EE40197F1F700C0000087E090EB4B
:10317000DC018093630290936402A0936502B09394
:10318000660288E19CE00FB6F894A89580936000F1
:103190000FBE90936000FFCF80914C020895089578
:1031A00022E02093E9002FEF3091E800215035FD17
:1031B00006C035ED3A95F1F700002111F5CF2091C9
:1031C000E80025FF0BC050E040E066E070E00E94A0
:1031D0000B1B8091E8008E778093E8000895CF93D1
:1031E000DF93D82FC92F809118018823C1F18091D6
:1031F0004E0287FF34C060E282E08093E9008FEFE7
:103200009091E800815095FD06C095ED9A95F1F7F3
:1032100000008111F5CF8091E80085FF1DC08091ED
:10322000180170E050E040E0811104C050E040E03F
:1032300068E070E08D2F9C2F0E940B1B8091E800AE
:103240008E778093E80080E2ED2FFC2FACE2B2E0B5
:1032500001900D928A95E1F7DF91CF91089568E092
:1032600081E0CBCF8093290270932B0260932A02D6
:1032700080915A02843001F582E08093E9008FEF5B
:103280009091E800815095FD06C095ED9A95F1F773
:1032900000008111F5CF8091E80085FF0DC050E05E
:1032A00040E063E070E089E292E00E940B1B8091B5
:1032B000E8008E778093E8000895BC0184E00C94C8
:1032C0003219BC0183E00C943219809159028111AA
:1032D00009C00E94931C0E94F01C8091E20084604F
:1032E0008093E20008951092590208950C94CB1730
:1032F0006091560281E0611101C080E00C94C41716
:1033000090915A0281E0943009F080E06091560279
:103310000C94C91742E061EC81E00E940F1C42E26C
:1033200061EC82E00E940F1C90915A0281E094307F
:1033300009F080E0609156020C94BF1780915C0206
:10334000893089F148F4823009F49EC0833009F451
:1033500059C0813041F008958A3009F485C08B301E
:1033600009F46BC0089580915B02813A09F049C06D
:103370008091E800877F8093E80080915F029091C0
:103380006002892B61F460E28CE292E070E00E94BE
:103390005A1B8091E8008B778093E800089560E0E5
:1033A00090E080E0F3CF80915B02813251F5809113
:1033B0005F0290916002029720F58091E800877F7C
:1033C0008093E8008091E80082FF17C09091F3009D
:1033D0008091F200029731F48091F100813011F078
:1033E000863021F48091F10080934C028091E800B6
:1033F0008B778093E8000C94431C80915A028111D2
:10340000E1CF089580915B02813AD9F780915F0204
:1034100090916002892BA9F78091E800877F8093C3
:10342000E8008091E80080FFFCCF80911801809334
:10343000F1008091E8008E77DCCF80915B028132D1
:1034400001F780915F0290916002892BD1F6809103
:10345000E800877F8093E8000E94431C80915D0212
:10346000809318010C943B0780915B02813249F6EE
:103470008091E800877F8093E8000E94431C809140
:103480005E0280934D02089580915B02813A09F0BB
:10349000B8CF8091E800877F8093E8008091E800B2
:1034A00080FFFCCF80914D02C2CF84B7877F84BF5D
:1034B0000FB6F894A89580916000886180936000B1
:1034C000109260000FBE80E890E00FB6F8948093F1
:1034D0006100909361000FBE0C94D0170E94931C62
:1034E0000E94F01CE2EEF0E080818460808378949A
:1034F0000C947C1F8CE091E00C94951680915A02FC
:103500008530A9F480915A02853011F00C943C1852
:103510000E941118809158028823A1F30E94DA17A3
:10352000882381F30E94F51A0E943B07EBCF089590
:1035300008950C949B1AFC01CB01DA012F2F33273D
:1035400023303105D1F070F42130310509F43EC04B
:103550002230310569F48BE390E02AED31E02D93C0
:103560003C93089521323105E9F02232310521F1F1
:1035700090E080E030E020E0F2CFCF019927E13009
:1035800059F08230910559F0E6EDF1E0892B81F791
:10359000849190E09F01E3CFE6ECF1E0F9CFE4EB1A
:1035A000F1E0F6CF892BB9F06130710509F789E0B8
:1035B00090E025E032E0D3CF892B91F061307105A6
:1035C000B9F686EB90E027E232E0C9CF82E190E0E5
:1035D00025E132E0C4CF89E090E02CEE31E0BFCFAE
:1035E00080E490E02DED32E0BACF80E189BD82E148
:1035F00089BD09B400FEFDCF8091D8008F7D8093F6
:10360000D8008091E00082608093E0008091E0002B
:1036100081FDFCCF0895AF92BF92CF92DF92FF92CF
:103620000F931F93CF93DF936C01EB018A010E94EC
:10363000621CF82E811123C00115110539F0F80123
:1036400080819181C81BD90BC80ED91EB12CA12C29
:103650002097A9F08091E80085FD22C08091E800C4
:103660008E778093E80001151105A1F0F8018081A3
:1036700091818A0D9B1D9183808385E0F82E8F2D8B
:10368000DF91CF911F910F91FF90DF90CF90BF906E
:10369000AF9008950E94621C8823D1F2F82EEFCFDC
:1036A000F60181916F018093F1002197FFEFAF1A2E
:1036B000BF0ACECFFC01CB012091610230916202A2
:1036C0002617370790F0009729F42091E8002E770D
:1036D0002093E80040E0009751F4411108C0809128
:1036E000E80082FF31C080E00895C901F3CF209146
:1036F0005A022223A9F12530A9F12091E80023FDE7
:103700002DC02091E80022FDEACF2091E80020FFA3
:10371000E2CF3091F3002091F200009719F02830A9
:10372000310558F041E02830310509F040E02091A2
:10373000E8002E772093E800CECF41914093F1002E
:1037400001972F5F3F4FE9CF80915A02882341F0C4
:10375000853041F08091E80083FFC1CF81E008957A
:1037600082E0089583E00895FC01CB01209161027D
:10377000309162022617370790F0009729F42091C4
:10378000E8002E772093E80040E0009751F44111C3
:1037900008C08091E80082FF32C080E00895C9012E
:1037A000F3CF20915A022223B1F12530B1F12091BB
:1037B000E80023FD2EC02091E80022FDEACF2091F1
:1037C000E80020FFE2CF3091F3002091F200009753
:1037D00019F02830310558F041E02830310509F062
:1037E00040E02091E8002E772093E800CECF44916E
:1037F0004093F100319601972F5F3F4FE8CF8091C2
:103800005A02882341F0853041F08091E80083FF1F
:10381000C0CF81E0089582E0089583E00895982F55
:10382000973028F08F708093E90081E0089590939D
:10383000E900242F762F50E0981731F07091EC00BA
:103840002091ED005091F00021FD02C09F5FE8CF74
:103850003091EB003E7F3093EB003091ED003D7FE7
:103860003093ED003091EB0031603093EB007093BA
:10387000EC002093ED005093F0002091EE0027FD26
:10388000E5CF80E0089580915B0287FF13C08091AF
:10389000E80082FF06C08091E8008B778093E80003
:1038A00004C080915A028111F2CF089580915A028A
:1038B0008823D9F38091E80080FFF8CF8091E80059
:1038C0008E77ECCF2091E4003091E50095E6A901D8
:1038D0002091EC00822F817020FF06C08091E800CB
:1038E00080FF06C080E008952091E80022FD1AC004
:1038F00080915A02882389F0853089F08091EB000D
:1039000085FD0FC02091E4003091E5004217530778
:10391000F9F29150E1F684E0089582E0089583E0A1
:10392000089581E008950E94011D0E94091DE0EEA6
:10393000F0E0808181608083E8EDF0E080818F7726
:10394000808319BCA7EDB0E08C918E7F8C93808131
:103950008F7E80831092590208950F931F93CF9307
:10396000DF930E94011D0E94091DC8EDD0E08881EF
:103970008F77888388818068888388818F7D88831A
:1039800019BC10925A0210925602109258021092CC
:10399000570200EE10E0F80180818B7F80838881E0
:1039A0008160888342E060E080E00E940F1CE1EECD
:1039B000F0E080818E7F8083E2EEF0E080818160A4
:1039C0008083808188608083F80180818E7F8083FE
:1039D000888180618883DF91CF911F910F91089535
:1039E000E8EDF0E080818F7E8083E7EDF0E080817C
:1039F0008160808384E082BF81E0809359020C94CF
:103A0000AD1CE8EDF0E080818E7F80831092E200B3
:103A100008951092DA001092E10008951F920F921B
:103A20000FB60F9211242F933F934F935F936F9391
:103A30007F938F939F93AF93BF93EF93FF93809167
:103A4000E10082FF0BC08091E20082FF07C08091FD
:103A5000E1008B7F8093E1000E947B1F8091DA0060
:103A600080FF19C08091D80080FF15C08091DA00D6
:103A70008E7F8093DA008091D90080FF94C080E12E
:103A800089BD82E189BD09B400FEFDCF81E080934C
:103A90005A020E9465198091E10080FF19C080914F
:103AA000E20080FF15C08091E2008E7F8093E200EB
:103AB0008091E20080618093E2008091D800806272
:103AC0008093D80019BC85E080935A020E9478192F
:103AD0008091E10084FF29C08091E20084FF25C02D
:103AE00080E189BD82E189BD09B400FEFDCF8091EE
:103AF000D8008F7D8093D8008091E1008F7E8093E5
:103B0000E1008091E2008F7E8093E2008091E200EC
:103B100081608093E20080915602882309F449C0B5
:103B200084E080935A020E9480198091E10083FF13
:103B300029C08091E20083FF25C08091E100877F4A
:103B40008093E10082E080935A02109256028091A5
:103B5000E1008E7F8093E1008091E2008E7F809370
:103B6000E2008091E20080618093E20042E060E048
:103B700080E00E940F1C8091F00088608093F0002C
:103B80000E947619FF91EF91BF91AF919F918F9114
:103B90007F916F915F914F913F912F910F900FBE49
:103BA0000F901F90189519BC10925A020E94731919
:103BB00072CF8091E30087FD02C081E0B2CF83E045
:103BC000B0CF1F920F920FB60F921124FF920F9356
:103BD0001F932F933F934F935F936F937F938F9395
:103BE0009F93AF93BF93CF93DF93EF93FF9309EE30
:103BF00010E0F8018081C091EC00C795CC27C795F3
:103C00008F70FC2EF82A1082C0EFD0E08881877F69
:103C1000888378940E942A1EF80110828881886027
:103C20008883CF2DCF70C083FF91EF91DF91CF912B
:103C3000BF91AF919F918F917F916F915F914F91C4
:103C40003F912F911F910F91FF900F900FBE0F90FA
:103C50001F9018951F93CF93DF93CDB7DEB7AA9728
:103C60000FB6F894DEBF0FBECDBF8BE592E0FC012E
:103C700001962091F100208322E083369207B9F764
:103C80000E949E198091E80083FF1DC180915B0214
:103C900090915C029A3008F016C1E92FF0E0E15BE8
:103CA000FF4D0C94AA1F803899F0823809F00BC19F
:103CB00080915F028F70873008F005C18093E90022
:103CC0008091EB0085FB882780F91092E90006C0FF
:103CD0008091570290915802911182609091E80072
:103CE000977F9093E8008093F1001092F10080910B
:103CF000E8008E77E4C0882309F4D2C0823009F04E
:103D0000E2C080915D028111D5C080915F028F7009
:103D10002FEF280F263008F0D6C08093E9002091BD
:103D2000EB0020FFC7C0933031F48091EB0080623C
:103D30008093EB00BFC09091EB0090619093EB00FB
:103D400021E030E001C0220F8A95EAF72093EA00D3
:103D50001092EA008091EB008860EACF8111B3C035
:103D600010915D021F778091E3008078812B809312
:103D7000E3008091E800877F8093E8000E94431C65
:103D80008091E80080FFFCCF8091E3008068809301
:103D9000E30082E0111183E080935A0294C08058BE
:103DA000823008F090C080915D0290915E028C3D5F
:103DB00023E0920799F583E08A838AE289834FB7EB
:103DC000F894DE01139620E03EE051E2E32FF0E0AC
:103DD00050935700849120FF03C082958F703F5FFE
:103DE0008F708A30C8F0895C90E08D939D932F5F2F
:103DF000243161F74FBF8091E800877F8093E8000E
:103E00006AE270E0CE0101960E945A1B8091E800A0
:103E10008B778093E80057C0805DE6CF60915F02AA
:103E200070916002AE014F5F5F4F0E94991ABC0112
:103E3000892B09F448C08091E800877F8093E800CF
:103E400089819A810E94B41BE1CF8038E1F580918D
:103E5000E800877F8093E800809156028093F1000C
:103E600046CF811130C090915D02923060F5809113
:103E7000E800877F8093E800909356020E94431CDD
:103E800080915602882311F084E005C08091E30000
:103E900087FDFACF81E080935A020E948A1913C0ED
:103EA00080915D02813079F481E0933009F080E007
:103EB000809358021092E9008091E800877F8093F8
:103EC000E8000E94431C8091E80083FF0AC08091B3
:103ED000E800877F8093E8008091EB008062809308
:103EE000EB00AA960FB6F894DEBF0FBECDBFDF91F0
:103EF000CF911F9108950895CF9380915A028823FE
:103F000099F08091E900C091EC00C795CC27C79546
:103F10008F70C82B1092E9008091E80083FD0E9409
:103F20002A1ECF70C093E900CF91089597FB072E0A
:103F300016F4009407D077FD09D00E94B01F07FC4B
:103F400005D03EF4909581959F4F089570956195A9
:103F50007F4F0895EE0FFF1F0590F491E02D099417
:103F6000AA1BBB1B51E107C0AA1FBB1FA617B7079F
:103F700010F0A61BB70B881F991F5A95A9F78095BB
:103F80009095BC01CD010895FB01DC0104C08D9129
:103F90000190801921F441505040C8F7881B990BBB
:103FA0000895F999FECF92BD81BDF89A992780B501
:103FB0000895A8E1B0E042E050E00C940520262FDF
:103FC000F999FECF92BD81BDF89A019700B402160F
:103FD00039F01FBA20BD0FB6F894FA9AF99A0FBEBD
:103FE00008950396272F0E94E01F0E94DF1F252FB0
:103FF0000E94E01F242F0C94E01F0196272F0E949F
:10400000E01F0C94DF1FDC01CB01FC01F999FECF0E
:1040100006C0F2BDE1BDF89A319600B40D92415050
:104020005040B8F70895F894FFCFC204C204F604D4
:10403000F6049405B00527052705BB056706780635
:104040007806B712BD12C012C612DB12DB12DB12E9
:10405000DB12DB12DB12DB12DB12C912CE12D21220
:10406000D812E912EF12F312151519151D152B159B
:104070002F15331537153D15451549154D15511596
:104080005D156115651569156F158D157715271562
:104090005515591541157315831596159A15531E07
:1040A0007B1E631F7B1E631FAE1ECF1E631F251F5B
:0240B000311FBE
:1040B200C800E101280850011E0A1401CC18EF18AB
:1040C200D01861195D19CF1801E200E900EA00B5C4
:1040D20000B600B700CD008301CC008A01920194A2
:1040E200012102230224022502260227022A02B308
:1040F20000B4006F007000E200E900EA00B500B60B
:1041020000B700CD008301CC008A01920194012105
:1041120002230224022502260227022A02B300B445
:06412200006F00700000B8
:00000001FF
